:020000040800F2
:1000000000000220215F0008C9580008CB580008F2
:10001000CD580008CF580008D15800080000000053
:10002000000000000000000000000000D35800089D
:10003000D558000800000000D7580008D95800081B
:10004000715F0008715F0008715F0008715F000850
:10005000715F0008715F0008715F0008715F000840
:10006000715F0008715F0008715F0008715F000830
:10007000715F0008715F0008715F0008715F000820
:10008000715F0008715F0008715F0008715F000810
:10009000715F0008715F0008715F0008715F000800
:1000A000715F0008E1580008715F0008715F000887
:1000B000715F0008715F0008715F0008715F0008E0
:1000C000715F0008F1580008DD590008715F0008F1
:1000D000715F0008715F0008715F0008715F0008C0
:1000E000715F0008715F0008715F0008715F0008B0
:1000F000ED590008715F0008715F0008715F00082A
:10010000715F0008715F0008715F0008715F00088F
:10011000715F0008715F0008715F0008715F00087F
:10012000715F0008715F0008715F0008715F00086F
:10013000715F0008715F0008715F0008715F00085F
:10014000715F0008715F0008715F0008FD590008C9
:10015000715F0008715F0008715F0008715F00083F
:10016000715F0008715F0008715F0008715F00082F
:10017000715F0008715F0008715F000800000000F7
:08018000715F0008715F0008C7
:1001900010B5054C237833B9044B13B10448AFF3C1
:1001A00000800123237010BDE0010020000000004A
:1001B0000468000808B5034B1BB103490348AFF3BB
:1001C000008008BD00000000E40100200468000871
:1001D00081F0004102E000BF83F0004330B54FEAF8
:1001E00041044FEA430594EA050F08BF90EA020F65
:1001F0001FBF54EA000C55EA020C7FEA645C7FEAF8
:10020000655C00F0E2804FEA5454D4EB5555B8BF1A
:100210006D420CDD2C4480EA020281EA030382EA8B
:10022000000083EA010180EA020281EA0303362D1D
:1002300088BF30BD11F0004F4FEA01314FF4801CF0
:100240004CEA113102D0404261EB410113F0004F02
:100250004FEA03334CEA133302D0524263EB4303B9
:1002600094EA050F00F0A780A4F10104D5F1200E57
:100270000DDB02FA0EFC22FA05F2801841F10001B2
:1002800003FA0EF2801843FA05F359410EE0A5F186
:1002900020050EF1200E012A03FA0EFC28BF4CF0B7
:1002A000020C43FA05F3C01851EBE37101F000456D
:1002B00007D54FF0000EDCF1000C7EEB00006EEB7A
:1002C0000101B1F5801F1BD3B1F5001F0CD3490804
:1002D0005FEA30004FEA3C0C04F101044FEA44525B
:1002E00012F5800F80F09A80BCF1004F08BF5FEAE2
:1002F000500C50F1000041EB045141EA050130BDC2
:100300005FEA4C0C404141EB010111F4801FA4F164
:100310000104E9D191F0000F04BF01460020B1FAB9
:1003200081F308BF2033A3F10B03B3F120020CDAF1
:100330000C3208DD02F1140CC2F10C0201FA0CF0CF
:1003400021FA02F10CE002F11402D8BFC2F1200C34
:1003500001FA02F120FA0CFCDCBF41EA0C019040EA
:10036000E41AA2BF01EB0451294330BD6FEA040433
:100370001F3C1CDA0C340EDC04F11404C4F120021E
:1003800020FA04F001FA02F340EA030021FA04F330
:1003900045EA030130BDC4F10C04C4F1200220FA87
:1003A00002F001FA04F340EA0300294630BD21FAC5
:1003B00004F0294630BD94F0000F83F4801306BF8B
:1003C00081F480110134013D4EE77FEA645C18BF7F
:1003D0007FEA655C29D094EA050F08BF90EA020F16
:1003E00005D054EA000C04BF1946104630BD91EA0E
:1003F000030F1EBF0021002030BD5FEA545C05D111
:100400004000494128BF41F0004130BD14F580044F
:100410003CBF01F5801130BD01F0004545F0FE41C3
:1004200041F470014FF0000030BD7FEA645C1ABFF8
:10043000194610467FEA655C1CBF0B46024650EA2F
:10044000013406BF52EA033591EA030F41F400215B
:1004500030BD00BF90F0000F04BF0021704730B5E1
:100460004FF4806404F132044FF000054FF00001B6
:1004700050E700BF90F0000F04BF0021704730B577
:100480004FF4806404F1320410F0004548BF40424C
:100490004FF000013EE700BF42004FEAE2014FEAA1
:1004A00031014FEA02701FBF12F07F4393F07F4F7C
:1004B00081F06051704732F07F4208BF704793F07F
:1004C0007F4F04BF41F40021704730B54FF4607492
:1004D00001F0004521F000411CE700BF50EA010295
:1004E00008BF704730B54FF000050AE050EA01023E
:1004F00008BF704730B511F0004502D5404261EBAE
:1005000041014FF4806404F132045FEA915C3FF4EE
:10051000D8AE4FF003025FEADC0C18BF03325FEA8B
:10052000DC0C18BF033202EBDC02C2F1200300FA3C
:1005300003FC20FA02F001FA03FE40EA0E0021FA61
:1005400002F11444BDE600BF70B54FF0FF0C4CF44F
:10055000E06C1CEA11541DBF1CEA135594EA0C0F01
:1005600095EA0C0F00F0DEF82C4481EA030621EA3C
:100570004C5123EA4C5350EA013518BF52EA033577
:1005800041F4801143F4801338D0A0FB02CE4FF029
:100590000005E1FB02E506F00042E0FB03E54FF059
:1005A0000006E1FB03569CF0000F18BF4EF0010E51
:1005B000A4F1FF04B6F5007F64F5407404D25FEA4D
:1005C0004E0E6D4146EB060642EAC62141EA555100
:1005D0004FEAC52040EA5E504FEACE2EB4F1FD0C42
:1005E00088BFBCF5E06F1ED8BEF1004F08BF5FEAC0
:1005F000500E50F1000041EB045170BD06F0004672
:1006000046EA010140EA020081EA0301B4EB5C041E
:10061000C2BFD4EB0C0541EA045170BD41F4801116
:100620004FF0000E013C00F3AB8014F1360FDEBF3B
:10063000002001F0004170BDC4F10004203C35DA17
:100640000C341BDC04F11404C4F1200500FA05F39A
:1006500020FA04F001FA05F240EA020001F000423B
:1006600021F0004110EBD37021FA04F642EB0601B1
:100670005EEA430E08BF20EAD37070BDC4F10C04DB
:10068000C4F1200500FA04F320FA05F001FA04F29F
:1006900040EA020001F0004110EBD37041F100018B
:1006A0005EEA430E08BF20EAD37070BDC4F1200596
:1006B00000FA05F24EEA020E20FA04F301FA05F2FE
:1006C00043EA020321FA04F001F0004121FA04F2A6
:1006D00020EA020000EBD3705EEA430E08BF20EA76
:1006E000D37070BD94F0000F0FD101F000464000B0
:1006F00041EB010111F4801F08BF013CF7D041EA32
:10070000060195F0000F18BF704703F00046520035
:1007100043EB030313F4801F08BF013DF7D043EA06
:100720000603704794EA0C0F0CEA135518BF95EABC
:100730000C0F0CD050EA410618BF52EA4306D1D143
:1007400081EA030101F000414FF0000070BD50EA62
:10075000410606BF1046194652EA430619D094EAEC
:100760000C0F02D150EA013613D195EA0C0F05D1D6
:1007700052EA03361CBF104619460AD181EA03012A
:1007800001F0004141F0FE4141F470014FF00000E2
:1007900070BD41F0FE4141F4780170BD70B54FF07D
:1007A000FF0C4CF4E06C1CEA11541DBF1CEA1355FD
:1007B00094EA0C0F95EA0C0F00F0A7F8A4EB0504DF
:1007C00081EA030E52EA03354FEA013100F08880D6
:1007D0004FEA03334FF0805545EA131343EA12639F
:1007E0004FEA022245EA111545EA10654FEA002654
:1007F0000EF000419D4208BF964244F1FD0404F50D
:10080000407402D25B084FEA3202B61A65EB030568
:100810005B084FEA32024FF480104FF4002CB6EB25
:10082000020E75EB030E22BFB61A754640EA0C00A5
:100830005B084FEA3202B6EB020E75EB030E22BFE5
:10084000B61A754640EA5C005B084FEA3202B6EB26
:10085000020E75EB030E22BFB61A754640EA9C00E5
:100860005B084FEA3202B6EB020E75EB030E22BFB5
:10087000B61A754640EADC0055EA060E18D04FEA73
:10088000051545EA16754FEA06164FEAC30343EA13
:1008900052734FEAC2025FEA1C1CC0D111F4801FE0
:1008A0000BD141EA00014FF000004FF0004CB6E7D9
:1008B00011F4801F04BF01430020B4F1FD0C88BF78
:1008C000BCF5E06F3FF6AFAEB5EB030C04BFB6EB83
:1008D000020C5FEA500C50F1000041EB045170BD76
:1008E0000EF0004E4EEA113114EB5C04C2BFD4EBA3
:1008F0000C0541EA045170BD41F480114FF0000E27
:10090000013C90E645EA060E8DE60CEA135594EAA2
:100910000C0F08BF95EA0C0F3FF43BAF94EA0C0FA5
:100920000AD150EA01347FF434AF95EA0C0F7FF41A
:1009300025AF104619462CE795EA0C0F06D152EA6E
:1009400003353FF4FDAE1046194622E750EA410652
:1009500018BF52EA43067FF4C5AE50EA41047FF463
:100960000DAF52EA43057FF4EBAE12E74A0011D215
:1009700012F5001211D20DD56FF47873B3EB6252F9
:100980000ED44FEAC12343F0004343EA505323FA05
:1009900002F070474FF00000704750EA013002D17A
:1009A0004FF0FF3070474FF00000704753B94AB91D
:1009B000002908BF00281CBF4FF0FF314FF0FF3067
:1009C00000F072B9ADF1080C6DE904CE00F006F844
:1009D000DDF804E0DDE9022304B070472DE9F047BB
:1009E000089E04468846002B4BD18A42154667D99B
:1009F000B2FA82F24AB1C2F1200701FA02F320FAF8
:100A000007F7954047EA030894404FEA154E230C38
:100A1000B8FBFEF71FFA85FC0EFB178843EA084374
:100A200007FB0CF1994209D9EB1807F1FF3080F070
:100A30001B81994240F21881023F2B445B1AA4B2F9
:100A4000B3FBFEF00EFB103344EA034400FB0CFC46
:100A5000A44509D92C1900F1FF3380F00781A44582
:100A600040F2048102382C4440EA0740A4EB0C0415
:100A700000271EB1D4400023C6E900433946BDE833
:100A8000F0878B4209D9002E00F0EB800027C6E9E1
:100A9000000138463946BDE8F087B3FA83F7002FE6
:100AA00047D18B4202D3824200F2FA80841A61EB72
:100AB000030301209846002EE0D0C6E90048DDE798
:100AC00002B9FFDEB2FA82F2002A40F08F80491BA1
:100AD0004FEA154E1FFA85F80127B1FBFEFC230CE7
:100AE0000EFB1C1143EA014308FB0CF1994207D9A4
:100AF000EB180CF1FF3002D2994200F2CD8084460F
:100B0000591AA3B2B1FBFEF00EFB101443EA0444E1
:100B100008FB00F8A04507D92C1900F1FF3302D2D9
:100B2000A04500F2B6801846A4EB080440EA0C4049
:100B30009FE7C7F1200CBB4022FA0CFE4EEA030EE1
:100B400001FA07F420FA0CF521FA0CF34FEA1E48DB
:100B50002543B3FBF8F92C0C08FB19331FFA8EFA66
:100B600044EA034309FB0AF49C4202FA07F200FA42
:100B700007F10BD91EEB030309F1FF3080F08780EA
:100B80009C4240F28480A9F1020973441B1BADB260
:100B9000B3FBF8F008FB103345EA034400FB0AFA04
:100BA000A24508D91EEB040400F1FF336BD2A24525
:100BB00069D90238744440EA0940A0FB0289A4EBD9
:100BC0000A044C45C2464B4654D351D0002E69D03E
:100BD000B1EB0A0564EB030404FA0CFCFD40FC4095
:100BE0004CEA0505C6E90054002747E7C2F1200397
:100BF00020FA03F7954001FA02F021FA03F34FEAD5
:100C0000154E3843010CB3FBFEF71FFA85F80EFBB7
:100C1000173341EA034107FB08F38B4204FA02F45D
:100C200007D9691807F1FF3C2FD28B422DD9023F1B
:100C30002944CB1A81B2B3FBFEF00EFB103341EA1C
:100C4000034100FB08F38B4207D9691800F1FF3C10
:100C500017D28B4215D902382944C91A40EA0747EE
:100C60003BE73746304609E70746E7E61846FBE626
:100C70004145ABD2B8EB020A69EB0E0201381346CC
:100C8000A4E76046E9E7184695E76746D1E781465D
:100C90007CE702382C4447E7ACF1020C2B442FE7E9
:100CA000384608E73746E9E6704700BF0000000015
:100CB00001F0FF01102A2BDB10F0070F08D010F80D
:100CC000013B013A8B422DD010F0070F42B3F6D111
:100CD000F0B441EA012141EA014122F007047FF02A
:100CE00000070023F0E80256083C85EA010586EA81
:100CF000010685FA47F5A3FA87F586FA47F6A5FABD
:100D000087F68EB9EED1F0BC01F0FF0102F00702C8
:100D100032B110F8013B013A83EA010313B1F8D173
:100D20000020704701387047002D06BF3546033854
:100D3000073815F0010F07D1013015F4807F02BF8D
:100D4000013015F4C03F0130F0BC0138704700BFDE
:100D500010B504460E4B18784FF47A73B3FBF0F3DA
:100D60000C4A1068B0FBF3F000F0AAF868B90F2C39
:100D700001D901200AE0002221464FF0FF3000F0A7
:100D80005DF8034B5C60002000E0012010BD00BF57
:100D9000000000201801002008B50B4B1A6842F42F
:100DA00000721A601A6842F480621A601A6842F48B
:100DB00080721A60032000F02FF80020FFF7C8FFB0
:100DC00004F074FC002008BD003C0240034A116896
:100DD000034B1B780B441360704700BF5402002084
:100DE00000000020014B1868704700BF540200202B
:100DF00038B50446FFF7F6FF0546B4F1FF3F02D0D1
:100E0000044B1B781C44FFF7EDFF401BA042FAD3B4
:100E100038BD00BF00000020074AD36823F4E06318
:100E20001B041B0C000200F4E060184340F0BF609C
:100E300040F40030D060704700ED00E030B4174B54
:100E4000DB68C3F30223C3F10704042C28BF042486
:100E50001D1D062D18D9033B4FF0FF3505FA04F48C
:100E600021EA0401994005FA03F322EA0303194336
:100E700000280BDB0901C9B200F1604000F56140B8
:100E800080F8001330BC70470023E5E700F00F0046
:100E90000901C9B2024B1954F4E700BF00ED00E0AC
:100EA00014ED00E0002807DB00F01F0240090123D9
:100EB0009340024A42F82030704700BF00E100E052
:100EC0000138B0F1807F0AD2064B5860064AF02103
:100ED00082F823100020986007221A6070470120D2
:100EE000704700BF10E000E000ED00E090F8353002
:100EF000DBB2022B03D0802343650120704705231A
:100F000080F835300268136823F001031360002075
:100F1000704790F83500704700230F2B00F2D78000
:100F2000F0B482B039E0072200E00022B2403A4338
:100F30000234674E46F82420664A1468EA4302EAFF
:100F400004064F6817F4803F01D045EA0406614C5F
:100F50002660646802EA04064F6817F4003F01D077
:100F600045EA04065B4C6660A46802EA04064F6822
:100F700017F4801F01D045EA0406564CA660E468C9
:100F800022404E6816F4001F01D045EA0402514C7D
:100F9000E26001330F2B00F2978001229A400C6827
:100FA00004EA0205AA42F4D14C68022C01D0122CAA
:100FB00010D1DE08083650F826C003F00704A70059
:100FC0000F24BC402CEA040C0C69BC4044EA0C041D
:100FD00040F8264004685F000326BE40F64306EA58
:100FE000040C4C6804F00304BC4044EA0C040460A4
:100FF0004C6804F1FF3CBCF1010F03D9112C01D066
:10100000122C10D1846806EA040CCC68BC4044EA77
:101010000C048460446824EA02024C68C4F300149F
:101020009C4014434460C26816408A68BA40324308
:10103000C2604A6812F0805FABD000220192264A5B
:10104000546C44F480445464526C02F48042019223
:10105000019A9C08A61C1E4A52F8267003F003024F
:1010600096000F22B24027EA02071C4A90423FF442
:101070005CAF02F5806290421AD002F58062904225
:1010800018D002F58062904216D002F5806290423C
:1010900014D002F58062904212D002F58062904234
:1010A00010D002F5806290423FF43DAF08223DE748
:1010B00001223BE7022239E7032237E7042235E722
:1010C000052233E7062231E702B0F0BC70477047D3
:1010D00000380140003C014000380240000002405E
:1010E00012B909048161704781617047436931EA2F
:1010F000030301D08161704709048161704790F852
:101100003E30DBB2402B0AD00369B3F5804F15D0D7
:10111000036D002B36D0036D012B3DD07047036D5E
:101120002BB9436C026803F0FE0313617047436CF4
:10113000026843F00103DBB21361704790F83D3061
:10114000DBB2212B0FD0436C026843F00103DBB20A
:101150001361436B6BB1DB6B7BB10268536843F483
:10116000006353607047436C026803F0FE03136131
:10117000EFE7826B002AEED1D0E7836BDB6B002BAD
:10118000EBD1CBE7436CC3F3C813026803F006034B
:1011900043F0F00313617047436CC3F3C813026854
:1011A00003F0060343F0F1031361B7E7436C0268F1
:1011B000DBB21361436B3BB1DB6B4BB1026853682D
:1011C00043F4006353607047826B002AF4D1FAE75E
:1011D000836BDB6B002BF1D1F5E710B48BB090F88B
:1011E0003E30DAB2C16A046B90F83D30DBB2222B9C
:1011F0000BD00023099303685A6909929B690993EC
:10120000099B0BB05DF8044B7047036D0BB9402A86
:1012100017D0036D1BB90369B3F5404F19D0438D47
:101220009BB2002B25D1029303685A6902929A69F6
:101230000292029A1A6842F400721A60002303654F
:10124000DFE7009303685A6900929B690093009B53
:10125000D7E70023019303685A6901929A690192C2
:10126000019A1A6842F480721A60036D01330365B3
:10127000C7E7438D9BB2012B25D0438D9BB2022B38
:101280007BD00268136843F48063136003685A6874
:1012900012F4006F0ED011F5803F07D0012905D060
:1012A000082903D0102901D0202903D15A6842F41B
:1012B00080525A600023089303685A6908929B6918
:1012C0000893089BBAE711F5803F11D0082934D064
:1012D000202932D0122C2ED0042940D002293ED011
:1012E00010293CD00268136823F4806313603BE04C
:1012F0000268136823F48063136003685A6812F469
:10130000006F0CD01A6822F480621A6000230393E5
:1013100003685A6903929B690393039B8EE700223B
:1013200004925A6904929A690492049A1A6842F4DF
:1013300000721A6082E70129CED00268136823F494
:10134000806313600023069303685A6906929A69C2
:101350000692069A1A6842F400721A606EE70268F2
:10136000136843F4806313600023059303685A698C
:1013700005929B690593059B60E704290ED002291D
:101380000CD010290AD00268136823F4806313601C
:101390000268136843F40063136004E00268136892
:1013A00043F48063136003685A6812F4006F0ED030
:1013B00011F5803F07D0012905D0082903D0102955
:1013C00001D0202903D15A6842F480525A60002388
:1013D000079303685A6907929B690793079B2DE758
:1013E000438D9BB253B1426A036812781A61436A13
:1013F00001334362438D013B9BB243857047438D6C
:101400009BB253B103681A69436A1A70436A013385
:101410004362438D013B9BB243857047C36AB3F57A
:101420002A0F04D0C36AB3F12A4F03D070470123B7
:10143000C36270470823C362F8E70000002800F089
:10144000BE80F8B5044690F83D30002B6BD02423C5
:1014500084F83D302268136823F00103136001F023
:10146000D3FE6268584B9A4262D8584B98428CBF60
:1014700000230123002B40F0A480554BA3FB002345
:101480009B0C21684A6822F03F021A434A60256893
:101490002A6A22F03F0266684B498E424ED80133D9
:1014A00013432B622568E96921F44F4121F0FF01C4
:1014B0006368454A93424BD801385B00B0FBF3F3B5
:1014C0000133C3F30B03042B38BF04230B43EB613D
:1014D00021680B6823F0C003E269206A02431343CA
:1014E0000B6021688B6823F4034323F0FF03226918
:1014F000E068024313438B602168CB6823F0FF034D
:101500006269A06902431343CB602268136843F009
:101510000103136000202064202384F83D30206301
:1015200084F83E00F8BD80F83C3004F0DBF88EE72C
:10153000284B98428CBF002301239BE74FF4967100
:1015400001FB03F32449A1FB03139B090133A7E724
:10155000A268BAB9461E03EB4307B6FBF7F601369D
:10156000C6F30B06B6FA86F6760936BBC2B9013861
:1015700003EB4303B0FBF3F30133C3F30B0242F479
:101580000043A3E7461E03EB830707EB8707B6FB81
:10159000F7F60136C6F30B06B6FA86F67609E4E7E7
:1015A000013803EB830303EB8303B0FBF3F2013257
:1015B000C2F30B0242F4404388E7012386E701208F
:1015C00070470120AEE700BFA08601007F841E00A7
:1015D00083DE1B43FF083D00D34D62107047704708
:1015E000704708B590F83D30DAB2438D9BB27BB1BD
:1015F000416A036809781961436A01334362438D84
:10160000013B9BB24385438D9BB20BB9292A00D085
:1016100008BD0268536823F4806353602123036389
:10162000282380F83D30FFF7DBFFF1E7704708B56E
:1016300090F83D30DAB2438D9BB27BB103681969F3
:10164000436A1970436A01334362438D013B9BB285
:101650004385438D9BB20BB92A2A00D008BD02688E
:10166000536823F48063536022230363282380F8A4
:101670003D30FFF7DBFFF1E7704708B590F83D30EC
:1016800003F02803282B07D003686FF002025A6189
:10169000002380F83C3008BD0268536823F480635F
:1016A000536011F0040F0BD0002311F0800F09D10B
:1016B0008289002180F83C101946FFF7DDFFEAE738
:1016C0000123F2E7028BF4E77047000008B590F8B9
:1016D0003D30DBB2C26A082A01D0202A01D1282B72
:1016E00006D0212B1ED003686FF480625A6108BDBA
:1016F0001A4BC3620268536823F4E06353600368C3
:101700006FF480625A610268136823F48063136087
:1017100000230363202280F83D2080F83E30FFF74D
:10172000D3FFE4E70D4BC36221230363202380F83A
:101730003D30002380F83E300268536823F4E063B4
:10174000536003686FF480625A610268136823F47F
:1017500080631360FFF744FFC9E700BF0000FFFF8D
:10176000704710B590F83D30DBB290F83E20D2B211
:10177000C46A018D09B9212B04D0212B3BD0402A0A
:1017800037D010BD082C04D0202C02D014F5803F97
:1017900019D10268536823F4E06353600268136848
:1017A00043F40073136000230363202380F83D306B
:1017B00090F83E30DBB2402B15D0002380F83E304D
:1017C000FFF70CFFDDE70268536823F4E063536022
:1017D00011230363002380F83E30202380F83D303E
:1017E000FFF7FCFECDE7002380F83E30FFF7B8FF9F
:1017F000C7E7222BC5D1438D9BB283B190F83E3011
:10180000DBB2402B11D0426A036812781A61436A36
:1018100001334362438D013B9BB24385B1E70268CC
:10182000536823F480635360ABE7036D9BB9C36CCB
:10183000012B08D0836CC3F3072302681361036D87
:10184000013303659DE7836C0268DBB21361036DAE
:101850000233036595E7036D012B18D0036D022B4E
:101860008FD190F83D30DBB2222B18D090F83D306C
:10187000DBB2212B85D1426A036812781A61436A70
:1018800001334362438D013B9BB2438579E7836C0F
:101890000268DBB21361036D0133036571E702680F
:1018A000136843F4807313606BE708B5C26A90F85D
:1018B0003D30DBB2212B00D008BD438D9BB203BB72
:1018C000082A04D0202A02D012F5803F25D10268D0
:1018D000536823F4E06353600268136843F40073B1
:1018E000136000230363202380F83D3090F83E30DE
:1018F000DBB2402B21D0002380F83E30FFF76EFE94
:10190000DAE7426A036812781A61436A0133436274
:10191000438D013B9BB24385CEE70268536823F4B5
:10192000E063536011230363002380F83E302023DB
:1019300080F83D30FFF752FEBEE7002380F83E30CE
:10194000FFF70EFFB8E7704708B590F83D30DBB2FF
:10195000222B00D008BD438D9BB2032B14D9036802
:101960001A69436A1A70436A01334362438D013B2B
:101970009BB24385438D9BB2032BEBD10268536826
:1019800023F480635360E5E7C26A022AE2D0012BA8
:10199000E0D80268136823F4806313600268536818
:1019A00023F4E063536003681A69436A1A70436A58
:1019B00001334362438D013B9BB24385202380F872
:1019C0003D3090F83E30DBB2402B07D0002380F84A
:1019D0003E3012230363FFF702FEBBE7002380F8CB
:1019E0003E300363FFF7AFFFB4E708B5C26A438D2B
:1019F0009BB2042B13D0438D9BB2032B20D0438D7D
:101A00009BB2022B36D003681A69436A1A70436A84
:101A100001334362438D013B9BB243850FE0026873
:101A2000536823F48063536003681A69436A1A7029
:101A3000436A01334362438D013B9BB2438508BD3A
:101A400001684B6823F480634B60042A06D0022AA5
:101A500004D00268136823F48063136003681A6972
:101A6000436A1A70436A01334362438D013B9BB260
:101A70004385E4E7012A0BD0102A09D0042A36D086
:101A8000022A34D00268136843F40073136004E040
:101A90000268136823F48063136003681A69436A59
:101AA0001A70426A531C4362438D013B9BB24385CB
:101AB00003681B695370436A01334362438D013BE2
:101AC0009BB243850268536823F44073536020231C
:101AD00080F83D3090F83E30DBB2402B0DD0002333
:101AE00080F83E3012230363FFF779FDA7E7026811
:101AF000136843F480631360CFE7002380F83E301F
:101B00000363FFF720FF9AE77047704710B5806BBB
:101B100090F83D20416B0023CB63816BCB6304685D
:101B2000216821F4806121604385416B0B65816BE5
:101B30000B6501680B6823F001030B6090F83D30E2
:101B4000DBB2602B0DD0D2B202F02802282A12D0CC
:101B5000202380F83D30002380F83E30FFF7D4FF8B
:101B600010BD202380F83D30002380F83E30036410
:101B7000FFF7CBFFF4E70268136843F0010313603B
:101B80000268136843F4806313600023036328230F
:101B900080F83D30E2E7000010B5044690F83D3093
:101BA000DBB290F83E20D2B2102A33D003F02802E4
:101BB000282A37D02268526812F4006F04D1602BB3
:101BC00002D0202384F83D300023236384F83E3084
:101BD00023685A6812F4006F48D05A6822F40062F1
:101BE0005A60626B92F83530DBB2012B20D0424B49
:101BF0001365606BFFF77AF9002849D022681368F3
:101C000023F001031360202384F83D30606B036DE3
:101C100098473DE0222BC9D101680A6822F400628E
:101C20000A60C3E700232363282384F83D30CFE70D
:101C3000A36B314A1A65A06BFFF758F940B32368CC
:101C40005A6912F0400F05D01A69636A1A70636A04
:101C5000013363622268136823F0010313602023B9
:101C600084F83D30A06B036D984711E094F83D2057
:101C7000D2B2602A16D05A6912F0400F05D01A6904
:101C8000636A1A70636A013363622046FFF73CFFA0
:101C900094F83D30DBB2226C12F0040F01D0282BF7
:101CA00018D010BD202284F83D20002222645A69F9
:101CB00012F0400F05D01A69636A1A70636A013323
:101CC00063622268136823F0010313602046FFF764
:101CD0001CFFDDE72268536823F4E0635360074B81
:101CE000E36200232363202284F83D2084F83E3001
:101CF0002046FFF7E9FCD4E70D1B00080000FFFFBA
:101D000030B583B0044690F83D50EDB20268536898
:101D100023F4E06353600023019303685A6901923E
:101D20001A6842F001021A60019B0268136823F4EA
:101D30008063136003685A6812F4006F38D0222D54
:101D400021D02A2D1FD0426B1268526892B2428570
:101D5000428D92B21AB1026C42F0040202645A68D7
:101D600022F400625A60606BFFF7D3F801281FD09D
:101D7000636B434A1A65606BFFF7B8F8C0B1606BDC
:101D8000036D984714E0A26B1268526892B26285A4
:101D9000628D92B21AB1226C42F0040222645A6837
:101DA00022F400625A60A06BFFF7B3F8012840D11B
:101DB000638D9BB223B323685A6912F0040F09D0D4
:101DC0001A69636A1A70636A01336362638D013B47
:101DD0009BB2638523685A6912F0400F09D01A69D3
:101DE000636A1A70636A01336362638D013B9BB25D
:101DF0006385638D9BB21BB1236C43F004032364A2
:101E0000236C13BB2A2D25D094F83D30DBB2282B50
:101E100029D0236B222B01D0222D19D1002323633B
:101E2000202284F83D2084F83E302046FFF7FEFB58
:101E30000EE0A36B124A1A65A06BFFF757F8002853
:101E4000B6D0A06B036D9847B2E72046FFF7A4FE1B
:101E500003B030BD00232363282384F83D3020469F
:101E6000FFF7E4FBD0E7074BE36200232363202264
:101E700084F83D2084F83E302046FFF725FCE7E754
:101E80000D1B00080000FFFF70B50446026855688E
:101E9000C66A90F83E30DBB290F83D10102B14D09B
:101EA000C8B2402B11D0236C002B71D05369002194
:101EB00013F0020F6FD015F4007F6CD0236C03B1C8
:101EC00091692046FFF7D9FB70BD9069536913F003
:101ED000010105D1B6F52A0FF6D0B6F12A4FF3D09D
:101EE00011B115F4007F25D113F0080F02D015F4BD
:101EF000007F26D113F0020F02D015F4007F24D109
:101F000010F0040F29D0526812F4006FDCD113F0E6
:101F1000800F05D015F4806F02D013F0040F18D095
:101F200013F0040FD0D015F4007FCDD02046FFF77A
:101F3000BCFCC9E72046FFF771FA2046FFF7DFF83F
:101F4000C2E72046FFF732F9BEE72046FFF745F922
:101F5000BAE72046FFF705FCB6E7526812F4006FB7
:101F6000B2D113F0400F05D015F4806F02D013F0FA
:101F7000040F09D013F0040FA6D015F4007FA3D0EE
:101F80002046FFF732FD9FE72046FFF7DDFC9BE789
:101F9000916953698CE713F0100F02D015F4007F9C
:101FA00017D1212819D0292817D013F0400F05D0B8
:101FB00015F4806F02D013F0040F27D013F0040F34
:101FC00082D015F4007F3FF47FAF2046FFF717FA69
:101FD0007AE72046FFF794FE76E713F0800F05D0EE
:101FE00015F4806F02D013F0040F0BD013F0040F20
:101FF0003FF46AAF15F4007F3FF466AF2046FFF769
:10200000EFF961E72046FFF7ECFA5DE72046FFF7BE
:102010000EFB59E7F8B5044603685D695F6815F47F
:10202000807F07D017F4807F3BD06FF480725A61B5
:10203000012600E0002615F4007F08D017F4807F09
:1020400005D046F0020623686FF400725A6115F459
:10205000806F18D017F4807F15D094F83E30DBB233
:10206000628D91B294F83D20D2B2206B202B1AD011
:1020700023686FF480625A6146F0040694F83E309B
:10208000DBB2102B1DD015F4006F08D017F4807F41
:1020900005D046F0080623686FF400625A61B6B9AD
:1020A000F8BD0026C7E70029E2D1212A05D0292A58
:1020B00003D0282ADCD12128DAD12046FFF706FBFD
:1020C000E1E72268136843F400731360DBE7236CD5
:1020D0001E4326642046FFF75FFDE1E72DE9F04748
:1020E00082B00768CA00521A930003445A6D1B6DF0
:1020F0009A4257D8B8469B1AC1EBC104A2000244C9
:10210000526C9A4200D31A460C46064602F1030A64
:102110004FEA9A0A16E009F1030A4FEA9A0AE30025
:102120001B1B9D003544A96C337C00931FFA89F377
:10213000E2B2384601F038FFAB6C4B44AB646B6DD8
:102140004B446B6508EB441303F510639B699BB22A
:10215000534513D3E3001B1B9A003244516D136D9A
:1021600099420BD253B15B1AC4EBC4018A003244CA
:10217000D2F844909945CED39946CCE7E3001B1B97
:1021800098000644326D736D9A420FD804F00F0424
:102190000121A140D7F8344824EA0104C7F83448A3
:1021A000002000E0012002B0BDE8F0870020FAE73F
:1021B000F0B58BB0002800F08A800446056890F8DE
:1021C000BD3323B3032384F8BD33EB6B13F4807F5B
:1021D00001D100232361206801F098FC254655F8C1
:1021E000107B6E460FCD0FC60FCD0FC695E80300CE
:1021F00086E80300231D0ECB384601F0C5FB58B11D
:10220000022384F8BD33012528460BB0F0BD80F8C9
:10221000BC3303F0A5FCD5E70021206801F07CFC6D
:10222000002315E0D900C81A82002244012082F858
:102230003D0082F83C30A2F84230002082F83F0096
:1022400050649064CA1A9100214408650133DBB2DE
:102250006568AB42E6D3002315E0D800C11A8A00B6
:102260002244002182F8FD1182F8FC3182F8FF112E
:10227000C2F80412C2F80812C21A90002044C0F832
:1022800010120133DBB29D42E7D8254655F8107B8A
:102290006E460FCD0FC60FCD0FC695E8030086E83A
:1022A0000300231D0ECB384601F07CFC054620B10F
:1022B000022384F8BD330125A6E7002384F83830D3
:1022C000012384F8BD33206802F01BF89CE7012548
:1022D0009AE7026890F8BC33012B19D010B501239E
:1022E00080F8BC33836A012B0AD00446006801F0F1
:1022F000FCFF206801F004FC002084F8BC0310BD42
:102300008369012BF1D0936B43F480339363ECE743
:102310000220704770B505460E460368196C03EB42
:10232000461303F53064A3680269012A0FD0354AC9
:10233000914261D113F4004F5AD113F0200F01D014
:102340002023A360F1B2284603F050FC57E013F0BD
:10235000080F14D02C4A914205D913F4004F02D033
:102360004FF40043A360284603F038FC05F5717272
:102370000121286802F022F80823A3603FE013F04F
:10238000200F2ED113F0280F39D11F4A914202D9C4
:1023900013F4004F28D1F200921B93002B44D3F882
:1023A00004222169C1F31201521AC3F81422D3F88E
:1023B0000412D3F808220A44C3F80822F1B22846CE
:1023C00003F014FCDEB9C6EBC606B3002B44D3F809
:1023D0001032A3B905F571720121286801F0EEFFF2
:1023E0000DE02023A3600AE04FF40043A36006E061
:1023F0004FF40043A36002E0F1B203F0F7FB0020CA
:1024000070BD00BF0A31544F0A30544F38B50446EE
:1024100003681D6C03EB411101F530618A680369A3
:10242000012B0DD0124B9D4214D0204603F0D6FB59
:10243000104B9D4202D92369012B12D0002038BDD8
:102440000C4B9D42F1D912F4004FEED04FF40043F3
:102450008B60EAE712F4004FE7D04FF400438B6043
:10246000E3E704F571720121206801F0A7FFE5E7B9
:102470000A31544F0A30544F2DE9F84F044605688D
:10248000284601F07BFF08B1BDE8F88F2F460646CD
:10249000206801F042FF0028F6D0206801F03DFFDF
:1024A00010F0020F04D02268536903F00203536155
:1024B000206801F032FF10F4002F74D1206801F081
:1024C0002CFF10F4802F40F0C280206801F025FF1F
:1024D0000028C0F23481206801F01FFF10F4006F63
:1024E0000AD0D5F8083813F0010F40F04281226875
:1024F000536903F400635361206801F00EFF10F488
:10250000805F40F03A81206801F007FF10F4005F1F
:1025100040F08D81206801F000FF10F0100F14D002
:102520002268936923F0100393612E6A06F00F0767
:10253000C6F34343022B00F09281062B00F0B081DA
:102540002268936943F010039361206801F0E5FE6F
:1025500010F0080F40F0B681206801F0DEFE10F4A4
:10256000801F40F0B881206801F0D7FE10F4001FF2
:1025700040F0BB81206801F0D0FE10F0804F40F0A9
:10258000BE81206801F0C9FE10F0040F3FF47CAF5B
:1025900023685D6815F0040F40F0BA812268536823
:1025A0002B43536070E7206801F0BBFE8046B146C4
:1025B00025E007EB49130122C3F8082B49462046C2
:1025C000FFF7A8FE2BE049462046FFF71FFF07EB69
:1025D00049130822C3F8082B24E007EB49132022F3
:1025E000C3F8082B1AF4005F05D007EB49134FF42A
:1025F0000052C3F8082B09F101094FEA5808B8F155
:10260000000F3FF45BAF18F0010FF4D05FFA89F1CF
:10261000206801F096FE824610F0010FC9D11AF031
:10262000080FD0D11AF0100F04D007EB4913102275
:10263000C3F8082B1AF0200FD4D02369012BCCD17A
:1026400004F571720121206801F0B8FEC5E7206829
:1026500001F06FFE8046B14631E04FEAC902A2EBBD
:10266000090293002344596C9A6C0A449A6449E025
:102670001AF0080F04D007EB49130822C3F8082901
:102680001AF0100F04D007EB49131022C3F80829E1
:102690001AF0400F04D007EB49134022C3F8082971
:1026A0001AF0020F04D007EB49130222C3F80829DD
:1026B0001AF0800F3ED109F101094FEA5808B8F12C
:1026C000000F3FF402AF18F0010FF4D05FFA89FB5E
:1026D0005946206801F03EFE824610F0010FC7D037
:1026E00009F00F03012101FA03F2D7F8343823EA85
:1026F0000203C7F8343807EB4913C3F808192369F4
:102700008B42AAD05946204603F07CFA2369012B5C
:10271000AED1B9F1000FABD1C9EBC902930023448C
:102720001B6D002BA4D104F571720121206801F00A
:1027300045FE9DE749462046FFF7D0FCBBE7D5F8AC
:10274000043823F00103C5F8043894F8F433012B5E
:1027500008D0204603F096FA2268536903F000433C
:102760005361B8E6002184F8F413204600F061FAC2
:10277000F2E7204603F06EFAB9E605F50068D8F8EE
:10278000043023F00103C8F804301021206801F060
:10279000DBF914E007EB46134FF67F31C3F8081955
:1027A000D3F8002922F40012C3F80029C3F8081B4B
:1027B000D3F8002B22F40012C3F8002B0136636813
:1027C000B342E7D8D8F81C3043F00113C8F81C30E6
:1027D000236BEBB1D8F8843043F00B03C8F8843096
:1027E000D8F8443043F00B03C8F84430D5F800382B
:1027F00023F4FE63C5F8003804F57172217C20686B
:1028000001F0DCFD2268536903F4805353617AE6DA
:10281000D8F8143043F4005343F02B03C8F81430B5
:10282000D8F8103043F00B03C8F81030DEE720680A
:1028300001F0A8FD206801F085FAE060266800F04C
:10284000DDFC227B0146304601F0E4F8204603F02F
:10285000EAF92268536903F4005353615AE647F6D4
:10286000F0731E423FF46CAE4FEAC709A9EB0703B1
:102870004FEA8308A0443609C6F30A02D8F80812C2
:10288000284601F0B3FCC6F30A06D8F808323344F0
:10289000C8F80832D8F814321E44C8F814624FE65B
:1028A000082204F57171284601F0A0FCC6F30A164F
:1028B000FB00D91B8A002244D2F814321E44C2F80D
:1028C00014623DE6204603F0A8F92268536903F03C
:1028D0000803536140E60021204603F0DFF9226837
:1028E000536903F4801353613DE60021204603F051
:1028F000CFF92268536903F4001353613AE6204686
:1029000003F0D2F92268536903F08043536138E63B
:10291000204603F0CFF941E690F8BC33012B0DD0EF
:1029200010B50446012380F8BC3380F838100068E5
:1029300001F0CBFC002084F8BC0310BD02207047DE
:10294000F8B511F0800F28D101F00F06F500AF1B8C
:10295000BC00274604F5FC74044404343E46064497
:10296000002586F8FD5101F00F012170A260E3708F
:10297000627802B1E180022B1ED090F8BC33012BAB
:102980001DD00546012380F8BC332146006801F0C4
:10299000EAF9002085F8BC03F8BD01F00F06F50048
:1029A000AF1BBC0027463834044404343E4606447A
:1029B000012586F83D50D6E700232371DDE702208C
:1029C000EAE738B511F0800F21D101F00F05EA00D8
:1029D000541BA3001C4603F5FC7303440433254633
:1029E0000544002285F8FD2101F00F01197090F8CF
:1029F000BC23012A1AD00446012280F8BC231946C0
:102A0000006801F0FBF9002084F8BC0338BD01F038
:102A10000F04E200151BAB001D463833034404339A
:102A20002C460444012284F83D20DDE70220EDE736
:102A300070B501F00F05EE00711B8C0004F5FC74FD
:102A40000444211D761BB4000444C4F80822C4F8D1
:102A500010320023C4F8143284F8FD3184F8FC519C
:102A60000369012B06D065B1DAB2006801F0B0FA53
:102A7000002070BDC5EBC506B4000444C4F80C22A8
:102A8000F1E7DAB2006801F001FAF1E701F00F01B5
:102A9000C1EBC1018B001844D0F81402704770B527
:102AA00001F00F05EE00711B8C0038340444211D29
:102AB000761BB4000444A2642365002363650123EC
:102AC00084F83D3084F83C500369012B06D05DB199
:102AD000DAB2006801F07CFA002070BDC5EBC506D3
:102AE000B4000444E264F2E7DAB2006801F0CEF91F
:102AF000F2E738B501F00F0543689D4236D811F072
:102B0000800F20D1CA00541AA3001C4603F5FC73A1
:102B10000344043322460244002182F8FD110122BD
:102B20009A701D7090F8BC23012A21D0044601221E
:102B300080F8BC231946006801F06CFB7DB10020D1
:102B400084F8BC0313E0EA00511B8B0019463833AC
:102B5000034404330144012281F83D20DFE704F5FA
:102B60007172217C206801F029FCE8E7012038BD62
:102B70000220FCE710B501F00F0443689C422CD8FA
:102B800011F0800F1DD1E3001A1B91000A4601F5D8
:102B9000FC71014404310244002382F8FD3100231A
:102BA0008B700C7090F8BC33012B18D004460123B5
:102BB00080F8BC33006801F05AFB002084F8BC03A5
:102BC0000CE0E3001A1B91000A463831014404313D
:102BD0000244012382F83D30E1E7012010BD0220CC
:102BE000FCE730B40468606A29B10D46A36A00EBC3
:102BF000134000230CE040EA0240A06212E003F11F
:102C0000400104EB8101496800EB11400133DBB264
:102C1000691E8B42F3D340EA024005F13F0104EB09
:102C200081014860002030BC704703685962002071
:102C300070477047002800F0BB8170B582B0044631
:102C4000036813F0010F3BD0A74B9B6803F00C0304
:102C5000042B2CD0A44B9B6803F00C03082B21D031
:102C60006368B3F5803F4FD0B3F5A02F52D09E4B91
:102C70001A6822F480321A601A6822F480221A60DC
:102C80006368002B50D0FEF7ADF80546964B1B68E5
:102C900013F4003F14D1FEF7A5F8401B6428F5D9C2
:102CA00003208AE1904B5B6813F4800FD8D08E4BE1
:102CB0001B6813F4003F03D06368002B00F07A8197
:102CC000236813F0020F55D0874B9B6813F00C0F4D
:102CD0003ED0854B9B6803F00C03082B33D0E36890
:102CE000002B68D0814B01221A60FEF77BF8054665
:102CF0007D4B1B6813F0020F54D1FEF773F8401B95
:102D00000228F5D9032058E1774A136843F4803349
:102D10001360B5E7744B1A6842F480221A601A688F
:102D200042F480321A60ABE7FEF75CF805466E4B62
:102D30001B6813F4003FC3D0FEF754F8401B64280F
:102D4000F5D9032039E1684B5B6813F4800FC6D1D5
:102D5000654B1B6813F0020F04D0E368012B01D010
:102D600001202AE1604A136823F0F803216943EA4D
:102D7000C1031360236813F0080F40D0636963B385
:102D80005B4B01221A60FEF72DF80546564B5B6F30
:102D900013F0020F33D1FEF725F8401B0228F5D9B6
:102DA00003200AE1504A136823F0F803216943EA3B
:102DB000C1031360DEE74D4B00221A60FEF712F8E4
:102DC0000546494B1B6813F0020FD3D0FEF70AF8F3
:102DD000401B0228F5D90320EFE0454B00221A6082
:102DE000FEF700F80546404B5B6F13F0020F06D06C
:102DF000FDF7F8FF401B0228F5D90320DDE023682A
:102E000013F0040F79D0384B1B6C13F0805F33D173
:102E100000230193344B1A6C42F080521A641B6CED
:102E200003F080530193019B0125324B1B6813F47F
:102E3000807F23D0A368012B34D0052B38D02A4BB8
:102E40001A6F22F001021A671A6F22F004021A6741
:102E5000A368002B36D0FDF7C5FF0646224B1B6F3B
:102E600013F0020F48D1FDF7BDFF801B41F28833FC
:102E70009842F3D90320A0E00025D6E71D4A136845
:102E800043F480731360FDF7ADFF0646194B1B68D2
:102E900013F4807FCED1FDF7A5FF801B0228F5D962
:102EA00003208AE0104A136F43F001031367CFE752
:102EB0000D4B1A6F42F004021A671A6F42F00102BA
:102EC0001A67C5E7FDF78EFF0646074B1B6F13F029
:102ED000020F11D0FDF786FF801B41F28833984224
:102EE000F3D9032069E000BF0038024000004742E8
:102EF000800E474200700040E5B9A369002B5BD00B
:102F0000304A926802F00C02082A58D0022B17D0DF
:102F10002D4B00221A60FDF765FF0446294B1B6804
:102F200013F0007F42D0FDF75DFF001B0228F5D9AA
:102F3000032042E0234A136C23F080531364DCE740
:102F4000214B00221A60FDF74DFF05461D4B1B6803
:102F500013F0007F06D0FDF745FF401B0228F5D98E
:102F600003202AE0E369226A1343626A43EA821378
:102F7000A26A5208013A43EA0243E26A43EA026360
:102F8000104A5360104B01221A60FDF72BFF0446D4
:102F90000C4B1B6813F0007F06D1FDF723FF001BCD
:102FA0000228F5D9032008E0002006E0002004E014
:102FB00001207047012000E0002002B070BD012018
:102FC000FBE700BF0038024060004742324B9B687D
:102FD00003F00C03042B5CD0082B01D02F48704762
:102FE0002DE9F04B2C4B5A6802F03F025B6813F45A
:102FF000800F2BD0284B5B68C3F388131E46002735
:103000005C010025E41A65EB0705A90141EA94611A
:10301000A001001B61EB0501CB0043EA5073C40023
:10302000A01943EB07014B0243EAD0534402204668
:1030300019460023FDF7BAFC174B5B68C3F3014345
:1030400001335B00B0FBF3F0BDE8F08B124B5B6823
:10305000C3F388131E4600275C010025E41A65EBC4
:103060000705A90141EA9461A001001B61EB05017C
:10307000CB0043EA5073C400A01943EB07018B0255
:1030800043EA90538402204619460023FDF78EFC44
:10309000D2E70348704700BF003802400024F40024
:1030A00000127A00002800F09D8070B504464F4B56
:1030B0001B6803F00F038B4209D2CBB24B4A13704B
:1030C000136803F00F038B4201D0012070BD236809
:1030D00013F0020F17D013F0040F04D0444A936882
:1030E00043F4E0539360236813F0080F04D0404A80
:1030F000936843F4604393603D4A936823F0F00380
:10310000A068034393600D46236813F0010F32D08B
:103110006368012B21D09A1E012A25D9344A1268EE
:1031200012F0020F60D032498A6822F00302134382
:103130008B60FDF757FE06462D4B9B6803F00C0392
:103140006268B3EB820F16D0FDF74CFE801B41F294
:1031500088339842F0D90320B8E7254A126812F460
:10316000003FE0D10120B1E7214A126812F0007F50
:10317000D9D10120AAE71D4B1B6803F00F03AB4216
:1031800009D9EAB2194B1A701B6803F00F03AB425E
:1031900001D001209AE7236813F0040F06D0144AE7
:1031A000936823F4E053E1680B439360236813F0C2
:1031B000080F07D00E4A936823F46043216943EA5D
:1031C000C1039360FFF702FF094B9B68C3F303132E
:1031D000084AD35CD840084B18600020FDF7B8FDC2
:1031E000002073E70120704701206FE7003C024098
:1031F000003802401C68000818010020014B1868C4
:10320000704700BF1801002008B5FFF7F7FF044B17
:103210009B68C3F38223034AD35CD84008BD00BF38
:10322000003802402C68000810B4036A046A24F0D5
:1032300001040462846924F0F00444EA021223F0D9
:103240000A030B43826103625DF8044B704730B49C
:10325000046A24F0100404628469056A24F440744A
:1032600044EA022222F470421B039BB21A4325F067
:10327000A005090101F0A00129438261016230BC6F
:10328000704710B4036A23F0100303628469036A71
:1032900024F4704444EA023223F0A00343EA011309
:1032A000826103625DF8044B704730B4046A24F411
:1032B00080740462C469056A24F00304224322F086
:1032C000F0021B01DBB21A4325F42065090201F468
:1032D00020612943C261016230BC704730B4046A86
:1032E00024F480540462C469056A24F4407444EAF6
:1032F000022222F470421B039BB21A4325F420459C
:10330000090301F420412943C261016230BC7047C6
:10331000836823F07003194341F00701816070470F
:103320000268D36843F00103D3600268936803F036
:103330000703062B03D0136843F00103136000203A
:1033400070477047704770477047704710B5044624
:1033500003681A6912F0020F11D0DA6812F0020F36
:103360000DD06FF002021A610123037703689B6995
:1033700013F0030F70D0FFF7E6FF002323772368D5
:103380001A6912F0040F12D0DA6812F0040F0ED08E
:103390006FF004021A610223237723689B6913F4F8
:1033A000407F5FD02046FFF7CEFF002323772368BE
:1033B0001A6912F0080F12D0DA6812F0080F0ED056
:1033C0006FF008021A61042323772368DB6913F086
:1033D000030F4ED02046FFF7B6FF00232377236864
:1033E0001A6912F0100F12D0DA6812F0100F0ED016
:1033F0006FF010021A61082323772368DB6913F446
:10340000407F3DD02046FFF79EFF002323772368AF
:103410001A6912F0010F03D0DA6812F0010F36D1E9
:1034200023681A6912F0800F03D0DA6812F0800F57
:1034300034D123681A6912F0400F03D0DA6812F011
:10344000400F32D123681A6912F0200F03D0DA68D6
:1034500012F0200F30D110BDFFF774FF2046FFF7A8
:1034600073FF8AE72046FFF76DFF2046FFF76CFFEA
:103470009BE72046FFF766FF2046FFF765FFACE7B6
:103480002046FFF75FFF2046FFF75EFFBDE76FF0C6
:1034900001021A61204601F083FFC1E76FF080024C
:1034A0001A61204600F050FAC3E76FF040021A613B
:1034B0002046FFF74AFFC5E76FF020021A61204659
:1034C00000F041FAC7E700000368304A904212D08A
:1034D000B0F1804F0FD0A2F57C4290420BD002F5A4
:1034E0008062904207D002F58062904203D002F5DC
:1034F0007842904203D123F070034A681343234A71
:1035000090422AD0B0F1804F27D0A2F57C42904261
:1035100023D002F5806290421FD002F58062904273
:103520001BD002F57842904217D002F570529042BB
:1035300013D002F5806290420FD002F58062904273
:103540000BD0A2F59832904207D002F580629042EB
:1035500003D002F58062904203D123F44073CA681D
:10356000134323F080034A69134303608B68C362EB
:103570000B688362054B984203D003F58063984241
:1035800001D10B69036301234361704700000140CF
:10359000A8B110B5044690F83D305BB1022384F821
:1035A0003D30211D2068FFF78FFF012384F83D3057
:1035B000002010BD80F83C3002F0DEF8EEE701207C
:1035C0007047A8B110B5044690F83D305BB10223B6
:1035D00084F83D30211D2068FFF776FF012384F831
:1035E0003D30002010BD80F83C30FFF7AAFEEEE72A
:1035F0000120704770B4046A24F0010404628469F5
:10360000056A194EB0421DD0B0F1804F1AD0A6F510
:103610007C46B04216D006F58066B04212D006F560
:103620008066B0420ED006F57846B0420AD006F564
:103630007056B04206D0A6F59436B04202D044F09F
:10364000010202E024F00304224322F0F0021B01F5
:10365000DBB2134325F00A0201F00A011143836132
:10366000016270BC704700BF0000014038B590F89F
:103670003C30012B58D00D460446012380F83C30E5
:10368000022380F83D30DAB1042A2AD0082A3AD041
:10369000CB684A6809680068FFF720FE2268D36992
:1036A00023F44063D3612268D369A96843EA012304
:1036B000D361012384F83D30002084F83C0038BDFC
:1036C000CB684A6809680068FFF794FF226893692D
:1036D00023F00C03936122689369A9680B439361FB
:1036E000E7E7CB684A6809680068FFF7B0FD226821
:1036F000936923F44063936122689369A96843EA5C
:1037000001239361D5E7CB684A6809680068FFF731
:10371000CCFD2268D36923F00C03D3612268D369FE
:10372000A9680B43D361C4E70220C8E710B48468DA
:1037300024F47F4442EA03230B43234383605DF870
:10374000044B704790F83C30012B66D010B504460E
:10375000012380F83C30022380F83D3002689368F2
:1037600023F47F4323F0770393600B68402B4AD008
:1037700013D9602B3DD01ED9702B28D0B3F5005F34
:1037800030D1CB684A6889680068FFF7CFFF2268AC
:10379000936843F48043936024E0102B06D004D94F
:1037A000202B03D0302B01D01CE0DBB91946206858
:1037B000FFF7AEFD16E0502B14D1CA6849680068C7
:1037C000FFF732FD50212068FFF7A2FD0AE0CB6829
:1037D0004A6889680068FFF7A9FF2268936843F088
:1037E00077039360012384F83D30002084F83C0087
:1037F00010BDCA6849680068FFF743FD6021206872
:10380000FFF786FDEEE7CA6849680068FFF70CFD20
:1038100040212068FFF77CFDE4E70220704710B5E7
:103820000468A26822F070024B68134323F0070378
:103830000A681343A3604B68502B23D00BD9602B2D
:1038400027D0702B2CD10B698A68C9680068FFF7F4
:103850006DFF002010BD402B22D10B68052B21D01D
:1038600003681C6A1A6A22F001021A6202689369EC
:1038700023F0F003096943EA0113936103681C62B2
:103880000020E7E70A6989680068FFF7CDFC00209F
:10389000E0E70A6989680068FFF7F3FC0020D9E7D0
:1038A0000020D7E70120D5E790F83C30012B24D049
:1038B00010B50446012380F83C30022380F83D30E7
:1038C000FFF7ADFF034688B92168CA6822F04002BD
:1038D000CA602168CA6822F48042CA60012284F862
:1038E0003D20002284F83C20184610BD012384F8B6
:1038F0003D30002284F83C20F6E70223184670474A
:1039000090F83C30012B1CD070B4012680F83C604C
:10391000022380F83D3002685568936825F07005F1
:103920000C682C4323F080054B682B4354600268DD
:10393000936080F83D60002380F83C30184670BCEE
:103940007047022070477047704700000023013322
:103950000C4A934211D80269002AF8DA036943F04D
:103960000103036100230133064A934207D8026929
:1039700012F0010FF7D10020704703207047032099
:10398000704700BF400D030084B010B5044603A883
:1039900080E80E00089B012B1FD1A36B23F480331A
:1039A000A363E36823F4840323F04003E360E36844
:1039B00023F44013E3600F9B012B09D02046FFF74F
:1039C000C5FF069B012B1BD0BDE8104004B070471B
:1039D000E36843F48013E360F0E7E36843F04003F7
:1039E000E3602046FFF7B2FF0C9B23B9A36B43F4BF
:1039F0008033A363E5E7A36B23F48033A363E0E79D
:103A0000A36843F00603A360A36843F02003A36008
:103A1000DAE70000022A0AD00921C26822F47052B3
:103A2000C260C36843EA8123C360002070472A4B09
:103A30000B442A4A93423FD9294B0B44294A9342CB
:103A40003CD9A1F57403A3F51053274A934237D903
:103A5000A1F18373A3F5E74302F5C332A032934289
:103A600030D9224B0B44224A93422DD9214B0B448F
:103A700002F5922202F57872934227D91E4B0B442D
:103A800002F5C32202F52072934221D9A1F1B77346
:103A9000A3F5585302F5B71202F55872934219D99B
:103AA000164B0B4402F5122202F5F862934201D93B
:103AB0000621B2E70721B0E70F21AEE70E21ACE700
:103AC0000D21AAE70C21A8E70B21A6E70A21A4E70C
:103AD0000921A2E70821A0E7405327FFFF340C008B
:103AE000401E1BFF3F420F007F4F120060B6E5FEF5
:103AF0005FE3160000D3CEFEC05BB3FEE05459FE78
:103B0000836843F00103836000207047836823F0DB
:103B1000010383600020704708B5C36823F0C043E9
:103B2000C360012909D069B9C36843F08043C36009
:103B30003220FDF75DF9002008BDC36843F0005353
:103B4000C360F5E70120F7E7890141F02001016139
:103B500000230133054A934205D8026912F0200F71
:103B6000F7D1002070470320704700BF400D0300CD
:103B70001023036100230133054A934205D80269EB
:103B800012F0100FF7D1002070470320704700BFDC
:103B9000400D0300D0F800381943C0F80018002089
:103BA0007047000084B02DE9F041044607A880E882
:103BB0000E002546002306E003F1400204EB8202DA
:103BC0000021516001330E2BF6D9119BF3B9A36B81
:103BD00043F40013A363A36B23F40023A363A36B39
:103BE00023F48023A3630023C4F8003E04F5006699
:103BF000D4F80038C4F800380C9B012B14D1099B71
:103C00006BB900212046FFF7C5FF11E0236823F4BC
:103C100000132360A36B43F40023A363E3E70121B4
:103C20002046FFF7B7FF03E003212046FFF7B2FF6E
:103C300010212046FFF788FF804608B14FF00108A9
:103C40002046FFF795FF08B14FF0010800233361CC
:103C50007361F3610AE0C3B94FF00060C2F8000974
:103C600000220A614FF67F328A6001330799994238
:103C700010D905EB431202F51061D2F800090028B3
:103C8000E9DB0020C2F80009EAE74FF09040C2F8F3
:103C90000009E5E700230AE0BBB14FF09047C2F806
:103CA000007B002202614FF67F328260013399422D
:103CB00010D905EB431202F53060D2F8007B002FDB
:103CC000EADB0027C2F8007BEBE74FF00067C2F8A1
:103CD000007BE6E7336923F4807333610A9B012B91
:103CE0001BD00022A2616FF0804262611BB9A36900
:103CF00043F01003A361A269104B1343A3610D9B12
:103D00001BB1A36943F00803A361119B012B0DD0E4
:103D10004046BDE8F04104B07047094A3263326B57
:103D200042F4803242F003023263DAE7A36943F0DF
:103D3000804343F00403A361EAE700BF00383C80FE
:103D400000018000D0F8083813F0060307D0022BDA
:103D500007D0062B01D00F207047022070470020AB
:103D600070470220704770B40B784A78012A22D03D
:103D7000D0F81C2803F00F060124B44042EA0442A4
:103D8000C0F81C2800EB4310D0F8003B13F4004FA0
:103D90000ED1D0F8003B8A68C2F30A02C97842EA21
:103DA0008142134343F0805343F40043C0F8003B87
:103DB000002070BC7047D0F81C4803F00F06B240DA
:103DC00092B22243C0F81C2800EB4310D0F800291F
:103DD00012F4004FECD1D0F800298C68C4F30A0427
:103DE000C97844EA814444EA8353134343F080533F
:103DF00043F40043C0F80039DAE7000070B40B78F0
:103E00004A78012A1FD0D0F83C5803F00F0601244D
:103E100004FA06F625EA0645C0F83C58D0F81C58C6
:103E2000097801F00F018C4025EA0444C0F81C48D1
:103E300000EB4310D0F8002B124B1340C0F8003BAE
:103E4000002070BC7047D0F83C6803F00F0402FA01
:103E500004F4A4B226EA0404C0F83C48D0F81C4894
:103E6000097801F00F018A4092B224EA0202C0F8F8
:103E70001C2800EB4310D0F80039034A1A40C0F860
:103E80000029DDE70078F3EF007833EC70B40B78AD
:103E90004C78012C26D000EB431000F530631C69F0
:103EA000E40CE4041C611C6924F0FF5424F4C014E5
:103EB0001C614C690CB18C684C611C6944F4002491
:103EC0001C611C698D68C5F312052C431C61012A15
:103ED00065D0D0F8003B43F00443C0F8003B00201D
:103EE00070BC70474C696CBB00EB4314D4F810599C
:103EF00025F0FF5525F4C015C4F81059D4F8105911
:103F000045F40025C4F81059D4F81059ED0CED040F
:103F1000C4F81059012A33D000EB4313D3F8002919
:103F200042F00442C3F800294B69002BD7D0D0F8E7
:103F30003428097801F00F040121A1400A43C0F898
:103F40003428CCE700EB431404F510642569ED0C2C
:103F5000ED042561256925F0FF5525F4C01525617F
:103F60004E698D68AE4200D94D61256945F4002542
:103F7000256125694E69C6F3120635432561C9E7F7
:103F80000A691AB100EB4311C1F8142900EB431080
:103F9000D0F8002942F00442C0F800299FE7CA681F
:103FA000002A96D05A6194E770B49DF80C4064B929
:103FB00003339D0807E000EB023303F5805351F80B
:103FC000046B1E600134AC42F5D3002070BC704716
:103FD000F0B583B00B784C78012C2BD000EB431359
:103FE00003F530642569ED0CED042561256925F0A4
:103FF000FF5525F4C01525614D69002D40F0C580A1
:1040000025698E68C6F3120635432561256945F496
:1040100000252561012A00F0CD80CA78012A00F030
:10402000CF80D3F8002B42F00442C3F8002B0020CD
:1040300003B0F0BD4C6984BB00EB4314D4F81059B5
:1040400025F0FF5525F4C015C4F81059D4F81059BF
:1040500045F40025C4F81059D4F81059ED0CED04BE
:10406000C4F81059012A4CD000EB4313D3F800498F
:1040700044F00444C3F80049CC78012C6AD04B6961
:10408000002BD4D0D0F83428097801F00F04012196
:10409000A1400A43C0F83428C9E700EB4314D4F820
:1040A0001059ED0CED04C4F81059D4F8105925F04E
:1040B000FF5525F4C015C4F81059D4F810694D699E
:1040C0008F683D44013DB5FBF7F5474F07EAC5450D
:1040D0003543C4F81059D4F810594E69C6F3120686
:1040E0003543C4F8105904F51064CD78012DB9D1C9
:1040F000256925F0C0452561256945F000552561F4
:10410000B0E70A691AB100EB4314C4F81429CA785D
:10411000012A08D000EB4313D3F8002942F00442EF
:10412000C3F8002983E7D0F8082812F4807F08D16B
:1041300000EB4311D1F8002942F00052C1F80029E8
:10414000E8E700EB4311D1F8002942F08052C1F8B2
:104150000029DFE7D0F8084814F4807F0ED1D3F8A7
:10416000004944F00054C3F8004914460B46C9689E
:104170001A789B8A0094FFF717FF58E7D3F8004995
:1041800044F08054C3F80049EFE78E683544013DA0
:10419000B5FBF6F52669144F07EAC5473E4326618D
:1041A00027698E68ADB206FB05F5C5F312053D43E0
:1041B00025612FE7CA68002A3FF42FAF62612CE720
:1041C000D0F8082812F4807F06D1D3F8002B42F0F3
:1041D0000052C3F8002B24E7D3F8002B42F08052A2
:1041E000C3F8002B1DE700BF0000F81F0332920840
:1041F000002393420CD210B400F58054246841F897
:10420000044B01339342F7D308465DF8044B7047E3
:10421000084670470B784A78012A14D000EB431007
:10422000D0F8002B002A06DB2BB1D0F8003B23F09E
:104230008043C0F8003BD0F8003B43F40013C0F8C3
:10424000003B0020704700EB4310D0F80029002A03
:1042500006DB2BB1D0F8003923F08043C0F80039D9
:10426000D0F8003943F40013C0F80039E9E70B78BF
:104270004A78012A0ED000EB4310D0F8003B23F41B
:104280000013C0F8003BCB78023BDBB2012B15D901
:104290000020704700EB4310D0F8003923F40013DE
:1042A000C0F80039CB78023BDBB2012BF0D8D0F854
:1042B000003943F08053C0F80039E9E7D0F8003BFB
:1042C00043F08053C0F8003BE2E7D0F8003823F415
:1042D000FE63C0F80038D0F80038090101F4FE612F
:1042E0000B43C0F800380020704708B5D0F80438F8
:1042F00023F00203C0F804380320FCF779FD002006
:1043000008BD08B5D0F8043843F00203C0F80438FB
:104310000320FCF76DFD002008BD42698069104054
:104320007047D0F8183800F50060C0691840000CDC
:104330007047D0F8183800F50060C069184080B2A6
:10434000704700EB4111D1F8082B00F5006040697F
:104350001040704710B4D0F81048D0F8343801F04D
:104360000F02D340DB01DBB2234300EB411000F529
:104370001060806818405DF8044B7047406900F099
:1043800001007047D0F8003923F4FF6323F00703DE
:10439000C0F8003900F500639A6802F00602042AAA
:1043A00005D05A6842F480725A6000207047D0F8F5
:1043B000002942F00302C0F80029F2E710B4046CAF
:1043C000154B9C4203D9D0F8003B002B16DB002490
:1043D000C0F8104BD0F8104B44F40024C0F8104B38
:1043E000D0F8104B44F01804C0F8104BD0F8104B24
:1043F00044F0C044C0F8104B012903D000205DF800
:10440000044B7047C0F8142BD0F8003B43F08023D6
:10441000C0F8003BF2E700BF0A30544F10B5D0F8A7
:104420009042D0F894325BB194F80002FF2807D094
:104430009B6894F8012221469847FF2384F80032B4
:10444000002010BD4323038000487047080000206F
:1044500043230380004870474C000020432303801F
:1044600000487047900000200A23038000487047EE
:10447000D400002038B50446D0F8905201F06BFC0F
:10448000C5F80C02D4F890324BB1D4F89432DB6802
:1044900005F50371D5F804029847002038BD0220C5
:1044A000FCE770B5D0F89022D0F89852FAB101EB41
:1044B0008104A3000344DB694BB1C1EBC106B40026
:1044C00025446D6CB3FBF5F405FB14331BB10020E0
:1044D000C2F8140270BD01EB810293000344002472
:1044E000DC612346224601F078FC2046F2E70220F8
:1044F000F0E770B582B005460C46D0F89062002314
:104500008DF80730ADF804300B7813F0600227D037
:10451000202A56D1CA883AB9D0F894329B68002232
:104520004878984700204FE013F0800F0CD0D0F867
:1045300094329B68314660789847E2883146284635
:1045400000F094FD00203FE04B7886F800328B7934
:1045500086F80132CA88314600F09DFD002033E024
:104560004B780A2B14D00B2B21D01BB100F083FA0F
:10457000022029E090F87432032B05D1022201A910
:1045800000F074FD00201FE000F075FA02201BE02F
:1045900090F87432032B06D101220DF1070100F0CF
:1045A00065FD002010E000F066FA02200CE090F8B3
:1045B0007432032B01D1002006E000F05CFA0220E7
:1045C00002E000F058FA022002B070BD38B504468F
:1045D000812101F0E2FB0025E5620121204601F086
:1045E000DCFBC4F858518221204601F0D6FB25643B
:1045F000D4F890324BB1D4F894325B689847D4F831
:10460000900201F0E9FCC4F89052002038BD38B5A2
:104610000446037CA3BB4FF400730222812101F006
:10462000B1FB0125E5624FF40073022229462046C2
:1046300001F0A8FBC4F85851082303228221204628
:1046400001F0A0FB012323644FF4077001F0BCFCD0
:104650000546C4F8900268B3D4F894321B689847B2
:104660000023C5F81432C5F81832237CC3B14023A7
:10467000D5F804220121204601F0B7FB002038BD07
:1046800040230222812101F07DFB0125E5624023C8
:1046900002222946204601F075FBC4F85851CBE7A9
:1046A0004FF40073D5F804220121204601F09DFB50
:1046B0000020E4E70120E2E719B1C0F894120020DD
:1046C000704702207047D0F89032C3F80812C3F840
:1046D000102200207047D0F89032C3F80412002056
:1046E0007047D0F89022A2B108B5D2F814320BB1BD
:1046F000012008BD0123C2F81432D2F8103203633E
:10470000B2F81032D2F80822812101F066FB0020B5
:10471000EFE702207047D0F890229AB108B5037CE9
:104720003BB14023D2F80422012101F05EFB0020BE
:1047300008BD4FF40073D2F80422012101F055FBAB
:104740000020F5E70220704798B108B50346D0F87D
:104750008C0210B10020C3F88C0209B1C3F8881292
:104760001846012380F87432027001F0A9FA002083
:1047700008BD0220704719B1C0F88C1200207047A4
:104780000220704708B501F0F5FA002008BD08B511
:10479000D0F88C3233B11B68984708B9002008BDA7
:1047A0000220FCE70220FAE708B5D0F88C325B68FB
:1047B0009847002008BD38B5044600F52075284606
:1047C00000F045F90123C4F86C32B4F88632C4F81D
:1047D000703294F8801201F01F03012B0ED03BB110
:1047E000022B10D001F08001204601F0DEFA03E038
:1047F0002946204600F0B5FA002038BD294620465B
:1048000000F0E3FAF8E72946204600F00EFBF3E754
:1048100038B50446A1BB1046D4F86C32032B03D044
:10482000052B24D0002037E0D4F84C31D4F85021A7
:1048300093420DD99B1AC4F84C319A4206D99AB2C8
:104840000146204600F036FC002025E092B2F7E752
:10485000D4F88C321B692BB194F87422032A01D14D
:1048600020469847204600F02DFC002014E000254B
:10487000C4F86C522946204601F097FA28460BE00E
:104880000A46D0F88C329B693BB190F87412032928
:1048900005D111469847002038BD0220FCE70220D0
:1048A000FAE710B50446002953D11046D4F86C320B
:1048B000022B0CD0042B00D01BB98021204601F024
:1048C00074FA94F87832012B3FD000204DE0236A2F
:1048D000626A93421DD8E169B1FBF2F302FB131344
:1048E0002BB98A4203D8D4F8703299421FD3D4F836
:1048F0008C32DB682BB194F87422032A01D1204654
:1049000098478021204601F050FA204600F0E5FB50
:10491000D7E79A1A226292B20146204600F0B3FB12
:1049200000231A461946204601F05FFAC9E7002223
:104930001146204600F0A7FB0021C4F870120B4678
:104940000A46204601F051FABBE7002084F87802BD
:104950000BE00A46D0F88C325B693BB190F87412D8
:10496000032905D111469847002010BD0220FCE71D
:104970000220FAE770B5044640230022114601F0F8
:1049800001FA0125C4F844514026C4F85061334669
:1049900000228021204601F0F5F9A561666284F8C5
:1049A00074520023C4F86C326360C4F87C32D4F8CB
:1049B00090322BB1D4F88C325B68002120469847A6
:1049C000002070BD01740020704790F8743280F8A8
:1049D0007532042380F874320020704790F87532E5
:1049E00080F874320020704708B590F87432032BB9
:1049F00001D0002008BDD0F88C32DB69002BF8D044
:104A00009847F6E700207047002070470020704765
:104A100008B5012280F87422D0F88C2252680179FE
:104A20009047002008BD002302E00133DBB20130D3
:104A30000278002AF9D11846704708B54B88012B37
:104A400000D008BDC0F87C3200F03CFBF9E70B78E1
:104A500003704B7843708B78CA7803EB0223438052
:104A60000B794A7903EB022383808B79CA7903EBB4
:104A70000223C380704710B50446802101F095F9E8
:104A80000021204601F091F910BD30B583B00546F4
:104A90000C464A88130A013B062B00F28480DFE8AB
:104AA00003F004162A8282667300D0F888321B68ED
:104AB0000DF10601007C9847BDF8062012B1E3888D
:104AC000002B74D1E388002B7BD003B030BD037C76
:104AD00043B9D0F88C329B6A0DF106009847022347
:104AE0004370E9E7D0F88C32DB6A0DF10600984795
:104AF00002234370E0E7D2B2052A34D8DFE802F09F
:104B0000030B131B232BD0F888325B680DF10601D1
:104B1000007C9847D0E7D0F888329B680DF10601F9
:104B2000007C9847C8E7D0F88832DB680DF10601B1
:104B3000007C9847C0E7D0F888321B690DF1060168
:104B4000007C9847B8E7D0F888325B690DF1060120
:104B5000007C9847B0E7D0F888329B690DF10601D8
:104B6000007C9847A8E72146FFF785FFADE7037C67
:104B700033B9D0F88C325B6B0DF1060098479BE798
:104B80002146FFF778FFA0E7037C43B9D0F88C32C9
:104B90001B6B0DF106009847072343708CE72146F5
:104BA000FFF769FF91E72146FFF765FF8DE79A421E
:104BB00028BF1A46ADF806200146284600F056FAEE
:104BC00080E7284600F07EFA7FE738B504468B88F8
:104BD000F3B9CB88E3B94B887F2B19D803F07F0555
:104BE00090F87432032B0CD080F87652294601F0ED
:104BF000ECF8204600F066FA35B1022384F87432EE
:104C000009E0FFF738FF06E0012384F8743202E080
:104C10002046FFF730FF38BD38B504460D46897889
:104C2000284B197001290ED890F87432022B0ED03F
:104C3000032B21D02946FFF71EFF224B197820466F
:104C4000FFF7B2FD02E02946FFF715FF38BD81B13D
:104C50004160032380F87432FFF799FD022803D0E6
:104C6000204600F02FFAF1E729462046FFF703FF20
:104C7000ECE700F027FAE9E789B1436899421DD0D3
:104C8000D9B2FFF791FD0F4B197861602046FFF70D
:104C90007EFD02280DD0204600F014FAD6E702234C
:104CA00080F874324160FFF77FFD204600F00AFA79
:104CB000CCE729462046FFF7DEFEC7E700F002FA00
:104CC000C4E700BFFC01002008B5CB88012B0BD145
:104CD00090F874329BB1022B09D9032B0FD101221A
:104CE000011D00F0C3F901E0FFF7C5FE08BD014654
:104CF000002341F8083F012200F0B8F9F6E7FFF77A
:104D0000BAFEF3E708B590F87432013B022B12D8D3
:104D1000CB88022B0CD10123C360D0F87C320BB1BD
:104D20000323C360022200F10C0100F09FF908BDCB
:104D3000FFF7A1FEFBE7FFF79EFEF8E708B590F846
:104D40007432013B022B09D84B88012B00D008BDDF
:104D50000023C0F87C3200F0B5F9F8E7FFF78BFECE
:104D6000F5E708B50B7803F06003202B05D0402B46
:104D700003D043B1FFF77FFE03E0D0F88C329B688D
:104D80009847002008BD4B78092B1BD8DFE803F0BB
:104D900011171A141A08051A0E0BFFF776FEF0E722
:104DA000FFF713FFEDE7FFF737FFEAE7FFF78CFFA9
:104DB000E7E7FFF7A7FFE4E7FFF73FFEE1E7FFF7CD
:104DC000BDFFDEE7FFF757FEDBE738B505460C46CB
:104DD0000B7803F06003202B06D0402B04D01BB1CE
:104DE000FFF749FE002038BD95F87432013B022BD5
:104DF00016D82379012B0ED8D5F88C329B68214622
:104E000028469847E388002BECD10028EAD12846B1
:104E100000F058F9E6E721462846FFF72CFEE1E7C7
:104E200021462846FFF727FEDCE738B504468A8886
:104E30000B7803F06003202B08D0D0B2402B05D0B4
:104E40005BB12046FFF717FE002005E0D4F88C3256
:104E50009B6820469847002038BD202B05D1D4F808
:104E60008C329B6820469847F6E74B78012B32D06E
:104E7000002B5ED0032B40F0D68094F87432022BC6
:104E800006D0032B16D02046FFF7F5FD0020E3E700
:104E900008B1802804D12046FFF7EDFD0020DBE7B4
:104EA0000146204600F081FF8021204600F07DFF72
:104EB0000020D1E74B8823B918B1802801D0CB88D6
:104EC00023B1204600F0FEF80020C5E70146204649
:104ED00000F06BFFF5E794F87432022B06D0032B39
:104EE00016D02046FFF7C7FD0020B5E708B180289F
:104EF00004D12046FFF7BFFD0020ADE70146204664
:104F000000F053FF8021204600F04FFF0020A3E770
:104F10004B88002B40F08C8010F07F0F04D120468E
:104F200000F0D0F8002097E70146204600F045FF4A
:104F3000F5E794F87432022B06D0032B29D02046D3
:104F4000FFF799FD002087E708B1802812D112F001
:104F5000800F14D100F07F0000EB8000830003F588
:104F6000A073E11800250D600222204600F07EF8B3
:104F7000284671E72046FFF77EFD00206CE700F031
:104F80007F0000EB8000830003F110012144043115
:104F9000E8E752B2002A1EDB00F00F0303EB8303A5
:104FA0009D002544D5F844311BB3002A26DB00F0D0
:104FB0007F0202EB8202930003F5A073E51808B1AB
:104FC000802825D100232B6002222946204600F0AC
:104FD0004DF8002040E700F00F0303EB83039D0032
:104FE0002544AB69002BE0D12046FFF744FD0020AB
:104FF00032E72046FFF73FFD00202DE700F07F025B
:1050000002EB8202930003F1100525440435D6E734
:105010000146204600F088FE10B101232B60D3E743
:1050200000232B60D0E72046FFF725FD002013E783
:10503000002011E7C8B170B50D4616460446FFF7CB
:10504000F2FC013040003080287003236B70022393
:1050500007E001345A1CD2B2E9540233DBB200211A
:10506000A95421780029F4D170BD704710B51346BA
:105070000222C0F86C22C36103620A46002100F0DC
:10508000ACFE002010BD08B513460A46002100F012
:10509000A4FE002008BD10B513460322C0F86C2200
:1050A000C0F84831C0F84C310A46002100F09DFE9E
:1050B000002010BD08B513460A46002100F095FEF9
:1050C000002008BD08B50423C0F86C3200231A463E
:1050D000194600F082FE002008BD08B50523C0F87F
:1050E0006C3200231A46194600F07FFE002008BDEE
:1050F00070B58AB000240594069407940894099426
:105100000194254B1A6B42F080021A631A6B02F06D
:1051100080020192019A02941A6B42F001021A6312
:105120001A6B02F001020292029A03941A6B42F087
:1051300002021A631A6B02F002020392039A0494A9
:105140001A6B42F008021A631B6B03F00803049306
:10515000049B124E22464FF480513046FBF7C0FFAD
:105160004FF480530593012506950794089405A9EB
:105170003046FBF7D1FE4FF44063059312230693AC
:105180000795032308930423099305A90448FBF713
:10519000C3FE0AB070BD00BF00380240000C0240E0
:1051A0000004024030B58DB000240794089409949F
:1051B0000A940B9405940694019402940394049425
:1051C000164D4FF080432B606C60AC604FF0FF33A6
:1051D000EB602C618023AB612846FEF7D9F92846A5
:1051E000FEF7EFF9072307936023089309940B94C4
:1051F00007A92846FEF758FB0594069405A92846FA
:10520000FEF77EFB0194012302930394049422464B
:1052100001A92846FEF72AFA0DB030BD840400200B
:1052200030B58DB000240794089409940A940B9427
:10523000059406940194029403940494164D174B1C
:105240002B606C60AC604FF0FF33EB602C6180230F
:10525000AB612846FEF79CF92846FEF7B2F9072312
:1052600007935023089309940B9407A92846FEF747
:105270001BFB0594069405A92846FEF741FB019403
:10528000012302930394049404220DEB02012846A7
:10529000FEF7ECF90DB030BDE0030020000C00403B
:1052A00008B50A480A4B03600A4B43600023836039
:1052B0008622C2604FF48042026143618361C36110
:1052C00080230362FCF7BAF808BD00BF3C0300204E
:1052D00000580040A086010030B587B00024029439
:1052E00003940494059400940194104D104B2B608A
:1052F00042F2CF036B60AC6042F21073EB602C6142
:105300006C618023AB612846FEF742F94FF480536D
:10531000029302A92846FEF715FA00940194694603
:105320002846FEF7EDFA07B030BD00BF2404002088
:105330000000014030B587B0002402940394049427
:105340000594009401944FF480511148FBF7CEFE70
:10535000104D114B2B6040F247336B60AC604CF248
:105360005033EB602C616C61AC612846FEF710F99C
:105370004FF48053029302A92846FEF7E3F9009404
:10538000019469462846FEF7BBFA07B030BD00BF5E
:10539000000C0240FC02002000040140000000005C
:1053A00002682D4B9A4200D07047F0B583B04FF0A1
:1053B00080435B6A294C236062689B1AA360A068E3
:1053C000FBF748F822A3D3E90023FBF7BDF8064614
:1053D0000F46A068FBF73EF832463B46FAF7FCFE64
:1053E000FBF7C4FAA0601E4B5B6AE36022699B1A5C
:1053F00063616069FBF72EF815A3D3E90023FBF77F
:10540000A3F806460F466069FBF724F832463B4690
:10541000FAF7E2FEFBF7AAFA6061A3686269114D30
:105420000092A2691049284600F09EFE50212846AD
:1054300000F080FB23686360E3682361A3690133A4
:10544000A3610A4A934201D90022A26103B0F0BDD0
:10545000C58F31772D214F3F000001400002002011
:10546000000C0040900300203468000800286BEE18
:1054700030B595B03022002108A800F0B5FD002419
:105480000394049405940694079401941B4B1A6C9E
:1054900042F080521A641B6C03F080530193019B0D
:1054A0000294174B1A6842F480421A601B6803F496
:1054B00080430293029B012308934FF480330993A6
:1054C00002250E954FF480030F9304231093A82315
:1054D000119312950723139308A8FDF7ABFB0F2335
:1054E0000393049505944FF4A05306930793052165
:1054F00003A8FDF7D7FD15B030BD00BF003802404E
:105500000070004080B5FBF747FCFFF7B1FFFFF7E5
:10551000EFFDFFF747FEFFF783FE00F0BBFAFFF752
:10552000BFFEFFF7D9FEFFF705FF4FF080431A6873
:1055300042F001021A605A6942F001025A6103F511
:1055400040631A6842F001021A605A6942F001028F
:105550005A6103F578431A6842F001021A605A69E9
:1055600042F001025A61A3F580631A6842F0010219
:105570001A605A6942F001025A61A3F528435A6839
:1055800042F008025A601A6842F001021A6042486A
:10559000FDF7C6FE414B9968D961CEB21E62C1F3D8
:1055A00007275F62C1F3074CC3F828C0090ED96210
:1055B0005A691A63D0B25863C2F307249C63C2F3DA
:1055C0000745DD63120E1A64354B1960C3F804C039
:1055D0009F60DE601A615D619C61D861314A136829
:1055E00043F4806313602F4B5B6913F0020FFAD012
:1055F0002C4B5A699B692B4B5B6913F0800FFAD0D7
:10560000274B1A68274B1A61264B5B6913F0800FF2
:10561000FAD0234B5A68234B1A61224B5B6913F073
:10562000800FFAD01E4B9A681E4B1A611D4B5B69A6
:1056300013F0800FFAD01A4BDA681A4B1A61194B23
:105640005B6913F0800FFAD0154B1A69154B1A617C
:10565000144B5B6913F0800FFAD0114B5A69114B50
:105660001A61104B5B6913F0800FFAD00C4B9A69EA
:105670000C4B1A610B4B5B6913F0800FFAD0084B8F
:10568000DA69084B1A61074B5B6913F0800FFAD097
:105690000120FBF7ADFB7DE7240400200002002081
:1056A00064040020005800407047000082B00021D0
:1056B00000910B4B5A6C42F480425A645A6C02F4CB
:1056C00080420092009A01911A6C42F080521A6452
:1056D0001B6C03F080530193019B02B0704700BF25
:1056E0000038024030B589B000230393049305933A
:1056F0000693079302681D4B9A4201D009B030BD52
:10570000002401941A4D2B6B43F002032B632B6B87
:1057100003F002030193019B4FF4406303931223B0
:1057200004930123059306930423079303A91148C7
:10573000FBF7F2FB02942B6C43F480032B642B6C7D
:1057400003F480030293029B224621462120FBF7AB
:1057500075FB2120FBF7A6FB224621462220FBF702
:105760006DFB2220FBF79EFBC8E700BF00580040FE
:10577000003802400004024070B58CB0002307934B
:10578000089309930A930B930368494A93420AD0FA
:10579000B3F1804F1BD0474A934251D0464A9342BF
:1057A00071D00CB070BD00210091444B5A6C42F096
:1057B00001025A645B6C03F001030093009B0A46EC
:1057C0001920FBF73BFB1920FBF76CFBE9E70022F4
:1057D000019203F50E33196C41F001011964196C43
:1057E00001F00101019101990292196B41F001014F
:1057F0001963196B01F001010291029903921A6B6E
:1058000042F002021A631B6B03F002030393039B33
:1058100020230793022608960124099403250A955C
:105820000B9407A92648FBF777FB082307930896F4
:1058300009940A950B9407A92248FBF76DFBB0E782
:10584000002104911D4B1A6C42F008021A641A6C74
:1058500002F008020492049A05911A6B42F00102C8
:105860001A631B6B03F001030593059B0322079248
:1058700002230893012109910A920B9307A910486A
:10588000FBF74AFB8DE7002106910C4B5A6C42F066
:1058900002025A645B6C03F002030693069B0A46FD
:1058A0002C20FBF7CBFA2C20FBF7FCFA79E700BFA2
:1058B00000000140000C004000040140003802409C
:1058C00000000240000402407047FEE7FEE7FEE7EA
:1058D000FEE770477047704708B5FBF777FA08BDD9
:1058E00008B50248FDF732FD08BD00BF24040020C2
:1058F00008B53648FCF7C8FA354B5B6913F0020F60
:105900005DD1334A136843F480631360304B5B69A5
:1059100013F0020FFAD02E4B5A699A691A6842F4B2
:1059200080621A602A4B5B6913F0800FFAD0294B12
:105930001A68274B1A61264B5B6913F0800FFAD067
:10594000244B5A68224B1A61214B5B6913F0800F7C
:10595000FAD0204B9A681E4B1A611D4B5B6913F0FD
:10596000800FFAD01B4BDA68194B1A61184B5B6930
:1059700013F0800FFAD0174B1A69154B1A61144BAC
:105980005B6913F0800FFAD0124B5A69104B1A6101
:105990000F4B5B6913F0800FFAD00E4B9A690C4BDA
:1059A0001A610B4B5B6913F0800FFAD0094BDA696F
:1059B000074B1A61064B5B6913F0800FFAD0064A59
:1059C000136843F40073136008BD00BF3C0300205C
:1059D00000580040640400200054004008B502480C
:1059E000FCF718FB08BD00BF3C03002008B50248C7
:1059F000FDF7ACFC08BD00BFFC02002008B5024862
:105A0000FCF73AFD08BD00BFB017002008B50346FB
:105A10000B4A126842B10A4A106803446A4693422C
:105A200006D8074A136008BD054A06491160F2E727
:105A300000F0A0FA0C2303604FF0FF30F3E700BF43
:105A400044020020C01D00200F49D1F8883043F4E3
:105A50007003C1F888300D4B1A6842F001021A60D9
:105A6000002098601A6822F0847222F480321A6052
:105A7000074A5A601A6822F480221A60D8604FF0F0
:105A800000638B60704700BF00ED00E0003802400B
:105A90001030002408B500220F491048FEF754FECC
:105AA00070B90F490D48FEF766FE60B90D490B4805
:105AB000FEF702FE50B90948FEF764FE48B908BD7A
:105AC000FFF7F2FDEDE7FFF7EFFDEFE7FFF7ECFD86
:105AD000F1E7FFF7E9FDF2E760010020140500207F
